{
  "contractName": "NFT",
  "abi": [
    {
      "inputs": [],
      "stateMutability": "nonpayable",
      "type": "constructor"
    },
    {
      "anonymous": false,
      "inputs": [
        {
          "indexed": true,
          "internalType": "address",
          "name": "owner",
          "type": "address"
        },
        {
          "indexed": true,
          "internalType": "address",
          "name": "approved",
          "type": "address"
        },
        {
          "indexed": true,
          "internalType": "uint256",
          "name": "tokenId",
          "type": "uint256"
        }
      ],
      "name": "Approval",
      "type": "event"
    },
    {
      "anonymous": false,
      "inputs": [
        {
          "indexed": true,
          "internalType": "address",
          "name": "owner",
          "type": "address"
        },
        {
          "indexed": true,
          "internalType": "address",
          "name": "operator",
          "type": "address"
        },
        {
          "indexed": false,
          "internalType": "bool",
          "name": "approved",
          "type": "bool"
        }
      ],
      "name": "ApprovalForAll",
      "type": "event"
    },
    {
      "anonymous": false,
      "inputs": [
        {
          "indexed": true,
          "internalType": "address",
          "name": "from",
          "type": "address"
        },
        {
          "indexed": true,
          "internalType": "address",
          "name": "to",
          "type": "address"
        },
        {
          "indexed": true,
          "internalType": "uint256",
          "name": "tokenId",
          "type": "uint256"
        }
      ],
      "name": "Transfer",
      "type": "event"
    },
    {
      "inputs": [],
      "name": "admin",
      "outputs": [
        {
          "internalType": "address",
          "name": "",
          "type": "address"
        }
      ],
      "stateMutability": "view",
      "type": "function",
      "constant": true
    },
    {
      "inputs": [
        {
          "internalType": "address",
          "name": "to",
          "type": "address"
        },
        {
          "internalType": "uint256",
          "name": "tokenId",
          "type": "uint256"
        }
      ],
      "name": "approve",
      "outputs": [],
      "stateMutability": "nonpayable",
      "type": "function"
    },
    {
      "inputs": [
        {
          "internalType": "address",
          "name": "owner",
          "type": "address"
        }
      ],
      "name": "balanceOf",
      "outputs": [
        {
          "internalType": "uint256",
          "name": "",
          "type": "uint256"
        }
      ],
      "stateMutability": "view",
      "type": "function",
      "constant": true
    },
    {
      "inputs": [
        {
          "internalType": "uint256",
          "name": "tokenId",
          "type": "uint256"
        }
      ],
      "name": "getApproved",
      "outputs": [
        {
          "internalType": "address",
          "name": "",
          "type": "address"
        }
      ],
      "stateMutability": "view",
      "type": "function",
      "constant": true
    },
    {
      "inputs": [
        {
          "internalType": "address",
          "name": "owner",
          "type": "address"
        },
        {
          "internalType": "address",
          "name": "operator",
          "type": "address"
        }
      ],
      "name": "isApprovedForAll",
      "outputs": [
        {
          "internalType": "bool",
          "name": "",
          "type": "bool"
        }
      ],
      "stateMutability": "view",
      "type": "function",
      "constant": true
    },
    {
      "inputs": [],
      "name": "name",
      "outputs": [
        {
          "internalType": "string",
          "name": "",
          "type": "string"
        }
      ],
      "stateMutability": "view",
      "type": "function",
      "constant": true
    },
    {
      "inputs": [],
      "name": "nextTokenId",
      "outputs": [
        {
          "internalType": "uint256",
          "name": "",
          "type": "uint256"
        }
      ],
      "stateMutability": "view",
      "type": "function",
      "constant": true
    },
    {
      "inputs": [
        {
          "internalType": "uint256",
          "name": "tokenId",
          "type": "uint256"
        }
      ],
      "name": "ownerOf",
      "outputs": [
        {
          "internalType": "address",
          "name": "",
          "type": "address"
        }
      ],
      "stateMutability": "view",
      "type": "function",
      "constant": true
    },
    {
      "inputs": [
        {
          "internalType": "address",
          "name": "from",
          "type": "address"
        },
        {
          "internalType": "address",
          "name": "to",
          "type": "address"
        },
        {
          "internalType": "uint256",
          "name": "tokenId",
          "type": "uint256"
        }
      ],
      "name": "safeTransferFrom",
      "outputs": [],
      "stateMutability": "nonpayable",
      "type": "function"
    },
    {
      "inputs": [
        {
          "internalType": "address",
          "name": "from",
          "type": "address"
        },
        {
          "internalType": "address",
          "name": "to",
          "type": "address"
        },
        {
          "internalType": "uint256",
          "name": "tokenId",
          "type": "uint256"
        },
        {
          "internalType": "bytes",
          "name": "_data",
          "type": "bytes"
        }
      ],
      "name": "safeTransferFrom",
      "outputs": [],
      "stateMutability": "nonpayable",
      "type": "function"
    },
    {
      "inputs": [
        {
          "internalType": "address",
          "name": "operator",
          "type": "address"
        },
        {
          "internalType": "bool",
          "name": "approved",
          "type": "bool"
        }
      ],
      "name": "setApprovalForAll",
      "outputs": [],
      "stateMutability": "nonpayable",
      "type": "function"
    },
    {
      "inputs": [
        {
          "internalType": "bytes4",
          "name": "interfaceId",
          "type": "bytes4"
        }
      ],
      "name": "supportsInterface",
      "outputs": [
        {
          "internalType": "bool",
          "name": "",
          "type": "bool"
        }
      ],
      "stateMutability": "view",
      "type": "function",
      "constant": true
    },
    {
      "inputs": [],
      "name": "symbol",
      "outputs": [
        {
          "internalType": "string",
          "name": "",
          "type": "string"
        }
      ],
      "stateMutability": "view",
      "type": "function",
      "constant": true
    },
    {
      "inputs": [
        {
          "internalType": "uint256",
          "name": "tokenId",
          "type": "uint256"
        }
      ],
      "name": "tokenURI",
      "outputs": [
        {
          "internalType": "string",
          "name": "",
          "type": "string"
        }
      ],
      "stateMutability": "view",
      "type": "function",
      "constant": true
    },
    {
      "inputs": [
        {
          "internalType": "address",
          "name": "from",
          "type": "address"
        },
        {
          "internalType": "address",
          "name": "to",
          "type": "address"
        },
        {
          "internalType": "uint256",
          "name": "tokenId",
          "type": "uint256"
        }
      ],
      "name": "transferFrom",
      "outputs": [],
      "stateMutability": "nonpayable",
      "type": "function"
    },
    {
      "inputs": [
        {
          "internalType": "address",
          "name": "to",
          "type": "address"
        }
      ],
      "name": "mint",
      "outputs": [],
      "stateMutability": "payable",
      "type": "function",
      "payable": true
    }
  ],
  "bytecode": "0x60806040523480156200001157600080fd5b506040518060400160405280600d81526020017f52616e646f6d20436f6c6f7273000000000000000000000000000000000000008152506040518060400160405280600381526020017f524e430000000000000000000000000000000000000000000000000000000000815250816000908051906020019062000096929190620000f9565b508060019080519060200190620000af929190620000f9565b50505033600760006101000a81548173ffffffffffffffffffffffffffffffffffffffff021916908373ffffffffffffffffffffffffffffffffffffffff1602179055506200020e565b8280546200010790620001a9565b90600052602060002090601f0160209004810192826200012b576000855562000177565b82601f106200014657805160ff191683800117855562000177565b8280016001018555821562000177579182015b828111156200017657825182559160200191906001019062000159565b5b5090506200018691906200018a565b5090565b5b80821115620001a55760008160009055506001016200018b565b5090565b60006002820490506001821680620001c257607f821691505b60208210811415620001d957620001d8620001df565b5b50919050565b7f4e487b7100000000000000000000000000000000000000000000000000000000600052602260045260246000fd5b612974806200021e6000396000f3fe6080604052600436106100f35760003560e01c806370a082311161008a578063b88d4fde11610059578063b88d4fde1461032d578063c87b56dd14610356578063e985e9c514610393578063f851a440146103d0576100f3565b806370a082311461027157806375794a3c146102ae57806395d89b41146102d9578063a22cb46514610304576100f3565b806323b872dd116100c657806323b872dd146101c657806342842e0e146101ef5780636352211e146102185780636a62784214610255576100f3565b806301ffc9a7146100f857806306fdde0314610135578063081812fc14610160578063095ea7b31461019d575b600080fd5b34801561010457600080fd5b5061011f600480360381019061011a9190611b39565b6103fb565b60405161012c91906122d7565b60405180910390f35b34801561014157600080fd5b5061014a6104dd565b60405161015791906122f2565b60405180910390f35b34801561016c57600080fd5b5061018760048036038101906101829190611b8b565b61056f565b6040516101949190612270565b60405180910390f35b3480156101a957600080fd5b506101c460048036038101906101bf9190611afd565b6105f4565b005b3480156101d257600080fd5b506101ed60048036038101906101e891906119f7565b61070c565b005b3480156101fb57600080fd5b50610216600480360381019061021191906119f7565b61076c565b005b34801561022457600080fd5b5061023f600480360381019061023a9190611b8b565b61078c565b60405161024c9190612270565b60405180910390f35b61026f600480360381019061026a9190611992565b61083e565b005b34801561027d57600080fd5b5061029860048036038101906102939190611992565b61093d565b6040516102a59190612514565b60405180910390f35b3480156102ba57600080fd5b506102c36109f5565b6040516102d09190612514565b60405180910390f35b3480156102e557600080fd5b506102ee6109fb565b6040516102fb91906122f2565b60405180910390f35b34801561031057600080fd5b5061032b60048036038101906103269190611ac1565b610a8d565b005b34801561033957600080fd5b50610354600480360381019061034f9190611a46565b610c0e565b005b34801561036257600080fd5b5061037d60048036038101906103789190611b8b565b610c70565b60405161038a91906122f2565b60405180910390f35b34801561039f57600080fd5b506103ba60048036038101906103b591906119bb565b610d17565b6040516103c791906122d7565b60405180910390f35b3480156103dc57600080fd5b506103e5610dab565b6040516103f29190612270565b60405180910390f35b60007f80ac58cd000000000000000000000000000000000000000000000000000000007bffffffffffffffffffffffffffffffffffffffffffffffffffffffff1916827bffffffffffffffffffffffffffffffffffffffffffffffffffffffff191614806104c657507f5b5e139f000000000000000000000000000000000000000000000000000000007bffffffffffffffffffffffffffffffffffffffffffffffffffffffff1916827bffffffffffffffffffffffffffffffffffffffffffffffffffffffff1916145b806104d657506104d582610dd1565b5b9050919050565b6060600080546104ec90612744565b80601f016020809104026020016040519081016040528092919081815260200182805461051890612744565b80156105655780601f1061053a57610100808354040283529160200191610565565b820191906000526020600020905b81548152906001019060200180831161054857829003601f168201915b5050505050905090565b600061057a82610e3b565b6105b9576040517f08c379a00000000000000000000000000000000000000000000000000000000081526004016105b090612474565b60405180910390fd5b6004600083815260200190815260200160002060009054906101000a900473ffffffffffffffffffffffffffffffffffffffff169050919050565b60006105ff8261078c565b90508073ffffffffffffffffffffffffffffffffffffffff168373ffffffffffffffffffffffffffffffffffffffff161415610670576040517f08c379a0000000000000000000000000000000000000000000000000000000008152600401610667906124d4565b60405180910390fd5b8073ffffffffffffffffffffffffffffffffffffffff1661068f610ea7565b73ffffffffffffffffffffffffffffffffffffffff1614806106be57506106bd816106b8610ea7565b610d17565b5b6106fd576040517f08c379a00000000000000000000000000000000000000000000000000000000081526004016106f4906123f4565b60405180910390fd5b6107078383610eaf565b505050565b61071d610717610ea7565b82610f68565b61075c576040517f08c379a0000000000000000000000000000000000000000000000000000000008152600401610753906124f4565b60405180910390fd5b610767838383611046565b505050565b61078783838360405180602001604052806000815250610c0e565b505050565b6000806002600084815260200190815260200160002060009054906101000a900473ffffffffffffffffffffffffffffffffffffffff169050600073ffffffffffffffffffffffffffffffffffffffff168173ffffffffffffffffffffffffffffffffffffffff161415610835576040517f08c379a000000000000000000000000000000000000000000000000000000000815260040161082c90612434565b60405180910390fd5b80915050919050565b600760009054906101000a900473ffffffffffffffffffffffffffffffffffffffff1673ffffffffffffffffffffffffffffffffffffffff163373ffffffffffffffffffffffffffffffffffffffff16146108ce576040517f08c379a00000000000000000000000000000000000000000000000000000000081526004016108c5906123b4565b60405180910390fd5b64e8d4a51000341015610916576040517f08c379a000000000000000000000000000000000000000000000000000000000815260040161090d90612354565b60405180910390fd5b610922816006546112a2565b6006600081548092919061093590612776565b919050555050565b60008073ffffffffffffffffffffffffffffffffffffffff168273ffffffffffffffffffffffffffffffffffffffff1614156109ae576040517f08c379a00000000000000000000000000000000000000000000000000000000081526004016109a590612414565b60405180910390fd5b600360008373ffffffffffffffffffffffffffffffffffffffff1673ffffffffffffffffffffffffffffffffffffffff168152602001908152602001600020549050919050565b60065481565b606060018054610a0a90612744565b80601f0160208091040260200160405190810160405280929190818152602001828054610a3690612744565b8015610a835780601f10610a5857610100808354040283529160200191610a83565b820191906000526020600020905b815481529060010190602001808311610a6657829003601f168201915b5050505050905090565b610a95610ea7565b73ffffffffffffffffffffffffffffffffffffffff168273ffffffffffffffffffffffffffffffffffffffff161415610b03576040517f08c379a0000000000000000000000000000000000000000000000000000000008152600401610afa90612394565b60405180910390fd5b8060056000610b10610ea7565b73ffffffffffffffffffffffffffffffffffffffff1673ffffffffffffffffffffffffffffffffffffffff16815260200190815260200160002060008473ffffffffffffffffffffffffffffffffffffffff1673ffffffffffffffffffffffffffffffffffffffff16815260200190815260200160002060006101000a81548160ff0219169083151502179055508173ffffffffffffffffffffffffffffffffffffffff16610bbd610ea7565b73ffffffffffffffffffffffffffffffffffffffff167f17307eab39ab6107e8899845ad3d59bd9653f200f220920489ca2b5937696c3183604051610c0291906122d7565b60405180910390a35050565b610c1f610c19610ea7565b83610f68565b610c5e576040517f08c379a0000000000000000000000000000000000000000000000000000000008152600401610c55906124f4565b60405180910390fd5b610c6a848484846112c0565b50505050565b6060610c7b82610e3b565b610cba576040517f08c379a0000000000000000000000000000000000000000000000000000000008152600401610cb1906124b4565b60405180910390fd5b6000610cc461131c565b90506000815111610ce45760405180602001604052806000815250610d0f565b80610cee8461133c565b604051602001610cff92919061224c565b6040516020818303038152906040525b915050919050565b6000600560008473ffffffffffffffffffffffffffffffffffffffff1673ffffffffffffffffffffffffffffffffffffffff16815260200190815260200160002060008373ffffffffffffffffffffffffffffffffffffffff1673ffffffffffffffffffffffffffffffffffffffff16815260200190815260200160002060009054906101000a900460ff16905092915050565b600760009054906101000a900473ffffffffffffffffffffffffffffffffffffffff1681565b60007f01ffc9a7000000000000000000000000000000000000000000000000000000007bffffffffffffffffffffffffffffffffffffffffffffffffffffffff1916827bffffffffffffffffffffffffffffffffffffffffffffffffffffffff1916149050919050565b60008073ffffffffffffffffffffffffffffffffffffffff166002600084815260200190815260200160002060009054906101000a900473ffffffffffffffffffffffffffffffffffffffff1673ffffffffffffffffffffffffffffffffffffffff1614159050919050565b600033905090565b816004600083815260200190815260200160002060006101000a81548173ffffffffffffffffffffffffffffffffffffffff021916908373ffffffffffffffffffffffffffffffffffffffff160217905550808273ffffffffffffffffffffffffffffffffffffffff16610f228361078c565b73ffffffffffffffffffffffffffffffffffffffff167f8c5be1e5ebec7d5bd14f71427d1e84f3dd0314c0f7b2291e5b200ac8c7c3b92560405160405180910390a45050565b6000610f7382610e3b565b610fb2576040517f08c379a0000000000000000000000000000000000000000000000000000000008152600401610fa9906123d4565b60405180910390fd5b6000610fbd8361078c565b90508073ffffffffffffffffffffffffffffffffffffffff168473ffffffffffffffffffffffffffffffffffffffff16148061102c57508373ffffffffffffffffffffffffffffffffffffffff166110148461056f565b73ffffffffffffffffffffffffffffffffffffffff16145b8061103d575061103c8185610d17565b5b91505092915050565b8273ffffffffffffffffffffffffffffffffffffffff166110668261078c565b73ffffffffffffffffffffffffffffffffffffffff16146110bc576040517f08c379a00000000000000000000000000000000000000000000000000000000081526004016110b390612494565b60405180910390fd5b600073ffffffffffffffffffffffffffffffffffffffff168273ffffffffffffffffffffffffffffffffffffffff16141561112c576040517f08c379a000000000000000000000000000000000000000000000000000000000815260040161112390612374565b60405180910390fd5b6111378383836114e9565b611142600082610eaf565b6001600360008573ffffffffffffffffffffffffffffffffffffffff1673ffffffffffffffffffffffffffffffffffffffff1681526020019081526020016000206000828254611192919061265a565b925050819055506001600360008473ffffffffffffffffffffffffffffffffffffffff1673ffffffffffffffffffffffffffffffffffffffff16815260200190815260200160002060008282546111e991906125d3565b92505081905550816002600083815260200190815260200160002060006101000a81548173ffffffffffffffffffffffffffffffffffffffff021916908373ffffffffffffffffffffffffffffffffffffffff160217905550808273ffffffffffffffffffffffffffffffffffffffff168473ffffffffffffffffffffffffffffffffffffffff167fddf252ad1be2c89b69c2b068fc378daa952ba7f163c4a11628f55a4df523b3ef60405160405180910390a4505050565b6112bc8282604051806020016040528060008152506114ee565b5050565b6112cb848484611046565b6112d784848484611549565b611316576040517f08c379a000000000000000000000000000000000000000000000000000000000815260040161130d90612314565b60405180910390fd5b50505050565b606060405180606001604052806025815260200161291a60259139905090565b60606000821415611384576040518060400160405280600181526020017f300000000000000000000000000000000000000000000000000000000000000081525090506114e4565b600082905060005b600082146113b657808061139f90612776565b915050600a826113af9190612629565b915061138c565b60008167ffffffffffffffff8111156113f8577f4e487b7100000000000000000000000000000000000000000000000000000000600052604160045260246000fd5b6040519080825280601f01601f19166020018201604052801561142a5781602001600182028036833780820191505090505b5090505b600085146114dd57600182611443919061265a565b9150600a8561145291906127bf565b603061145e91906125d3565b60f81b81838151811061149a577f4e487b7100000000000000000000000000000000000000000000000000000000600052603260045260246000fd5b60200101907effffffffffffffffffffffffffffffffffffffffffffffffffffffffffffff1916908160001a905350600a856114d69190612629565b945061142e565b8093505050505b919050565b505050565b6114f883836116e0565b6115056000848484611549565b611544576040517f08c379a000000000000000000000000000000000000000000000000000000000815260040161153b90612314565b60405180910390fd5b505050565b600061156a8473ffffffffffffffffffffffffffffffffffffffff166118ae565b156116d3578373ffffffffffffffffffffffffffffffffffffffff1663150b7a02611593610ea7565b8786866040518563ffffffff1660e01b81526004016115b5949392919061228b565b602060405180830381600087803b1580156115cf57600080fd5b505af192505050801561160057506040513d601f19601f820116820180604052508101906115fd9190611b62565b60015b611683573d8060008114611630576040519150601f19603f3d011682016040523d82523d6000602084013e611635565b606091505b5060008151141561167b576040517f08c379a000000000000000000000000000000000000000000000000000000000815260040161167290612314565b60405180910390fd5b805181602001fd5b63150b7a0260e01b7bffffffffffffffffffffffffffffffffffffffffffffffffffffffff1916817bffffffffffffffffffffffffffffffffffffffffffffffffffffffff1916149150506116d8565b600190505b949350505050565b600073ffffffffffffffffffffffffffffffffffffffff168273ffffffffffffffffffffffffffffffffffffffff161415611750576040517f08c379a000000000000000000000000000000000000000000000000000000000815260040161174790612454565b60405180910390fd5b61175981610e3b565b15611799576040517f08c379a000000000000000000000000000000000000000000000000000000000815260040161179090612334565b60405180910390fd5b6117a5600083836114e9565b6001600360008473ffffffffffffffffffffffffffffffffffffffff1673ffffffffffffffffffffffffffffffffffffffff16815260200190815260200160002060008282546117f591906125d3565b92505081905550816002600083815260200190815260200160002060006101000a81548173ffffffffffffffffffffffffffffffffffffffff021916908373ffffffffffffffffffffffffffffffffffffffff160217905550808273ffffffffffffffffffffffffffffffffffffffff16600073ffffffffffffffffffffffffffffffffffffffff167fddf252ad1be2c89b69c2b068fc378daa952ba7f163c4a11628f55a4df523b3ef60405160405180910390a45050565b600080823b905060008111915050919050565b60006118d46118cf84612560565b61252f565b9050828152602081018484840111156118ec57600080fd5b6118f7848285612702565b509392505050565b60008135905061190e816128bd565b92915050565b600081359050611923816128d4565b92915050565b600081359050611938816128eb565b92915050565b60008151905061194d816128eb565b92915050565b600082601f83011261196457600080fd5b81356119748482602086016118c1565b91505092915050565b60008135905061198c81612902565b92915050565b6000602082840312156119a457600080fd5b60006119b2848285016118ff565b91505092915050565b600080604083850312156119ce57600080fd5b60006119dc858286016118ff565b92505060206119ed858286016118ff565b9150509250929050565b600080600060608486031215611a0c57600080fd5b6000611a1a868287016118ff565b9350506020611a2b868287016118ff565b9250506040611a3c8682870161197d565b9150509250925092565b60008060008060808587031215611a5c57600080fd5b6000611a6a878288016118ff565b9450506020611a7b878288016118ff565b9350506040611a8c8782880161197d565b925050606085013567ffffffffffffffff811115611aa957600080fd5b611ab587828801611953565b91505092959194509250565b60008060408385031215611ad457600080fd5b6000611ae2858286016118ff565b9250506020611af385828601611914565b9150509250929050565b60008060408385031215611b1057600080fd5b6000611b1e858286016118ff565b9250506020611b2f8582860161197d565b9150509250929050565b600060208284031215611b4b57600080fd5b6000611b5984828501611929565b91505092915050565b600060208284031215611b7457600080fd5b6000611b828482850161193e565b91505092915050565b600060208284031215611b9d57600080fd5b6000611bab8482850161197d565b91505092915050565b611bbd8161268e565b82525050565b611bcc816126a0565b82525050565b6000611bdd82612590565b611be781856125a6565b9350611bf7818560208601612711565b611c00816128ac565b840191505092915050565b6000611c168261259b565b611c2081856125b7565b9350611c30818560208601612711565b611c39816128ac565b840191505092915050565b6000611c4f8261259b565b611c5981856125c8565b9350611c69818560208601612711565b80840191505092915050565b6000611c826032836125b7565b91507f4552433732313a207472616e7366657220746f206e6f6e20455243373231526560008301527f63656976657220696d706c656d656e74657200000000000000000000000000006020830152604082019050919050565b6000611ce8601c836125b7565b91507f4552433732313a20746f6b656e20616c7265616479206d696e746564000000006000830152602082019050919050565b6000611d286035836125b7565b91507f76616c7565206d75737420626520455155414c204f522047524541544552205460008301527f48414e20302e30303030303030303120457468657200000000000000000000006020830152604082019050919050565b6000611d8e6024836125b7565b91507f4552433732313a207472616e7366657220746f20746865207a65726f2061646460008301527f72657373000000000000000000000000000000000000000000000000000000006020830152604082019050919050565b6000611df46019836125b7565b91507f4552433732313a20617070726f766520746f2063616c6c6572000000000000006000830152602082019050919050565b6000611e34600a836125b7565b91507f6f6e6c792061646d696e000000000000000000000000000000000000000000006000830152602082019050919050565b6000611e74602c836125b7565b91507f4552433732313a206f70657261746f7220717565727920666f72206e6f6e657860008301527f697374656e7420746f6b656e00000000000000000000000000000000000000006020830152604082019050919050565b6000611eda6038836125b7565b91507f4552433732313a20617070726f76652063616c6c6572206973206e6f74206f7760008301527f6e6572206e6f7220617070726f76656420666f7220616c6c00000000000000006020830152604082019050919050565b6000611f40602a836125b7565b91507f4552433732313a2062616c616e636520717565727920666f7220746865207a6560008301527f726f2061646472657373000000000000000000000000000000000000000000006020830152604082019050919050565b6000611fa66029836125b7565b91507f4552433732313a206f776e657220717565727920666f72206e6f6e657869737460008301527f656e7420746f6b656e00000000000000000000000000000000000000000000006020830152604082019050919050565b600061200c6020836125b7565b91507f4552433732313a206d696e7420746f20746865207a65726f20616464726573736000830152602082019050919050565b600061204c602c836125b7565b91507f4552433732313a20617070726f76656420717565727920666f72206e6f6e657860008301527f697374656e7420746f6b656e00000000000000000000000000000000000000006020830152604082019050919050565b60006120b26029836125b7565b91507f4552433732313a207472616e73666572206f6620746f6b656e2074686174206960008301527f73206e6f74206f776e00000000000000000000000000000000000000000000006020830152604082019050919050565b6000612118602f836125b7565b91507f4552433732314d657461646174613a2055524920717565727920666f72206e6f60008301527f6e6578697374656e7420746f6b656e00000000000000000000000000000000006020830152604082019050919050565b600061217e6021836125b7565b91507f4552433732313a20617070726f76616c20746f2063757272656e74206f776e6560008301527f72000000000000000000000000000000000000000000000000000000000000006020830152604082019050919050565b60006121e46031836125b7565b91507f4552433732313a207472616e736665722063616c6c6572206973206e6f74206f60008301527f776e6572206e6f7220617070726f7665640000000000000000000000000000006020830152604082019050919050565b612246816126f8565b82525050565b60006122588285611c44565b91506122648284611c44565b91508190509392505050565b60006020820190506122856000830184611bb4565b92915050565b60006080820190506122a06000830187611bb4565b6122ad6020830186611bb4565b6122ba604083018561223d565b81810360608301526122cc8184611bd2565b905095945050505050565b60006020820190506122ec6000830184611bc3565b92915050565b6000602082019050818103600083015261230c8184611c0b565b905092915050565b6000602082019050818103600083015261232d81611c75565b9050919050565b6000602082019050818103600083015261234d81611cdb565b9050919050565b6000602082019050818103600083015261236d81611d1b565b9050919050565b6000602082019050818103600083015261238d81611d81565b9050919050565b600060208201905081810360008301526123ad81611de7565b9050919050565b600060208201905081810360008301526123cd81611e27565b9050919050565b600060208201905081810360008301526123ed81611e67565b9050919050565b6000602082019050818103600083015261240d81611ecd565b9050919050565b6000602082019050818103600083015261242d81611f33565b9050919050565b6000602082019050818103600083015261244d81611f99565b9050919050565b6000602082019050818103600083015261246d81611fff565b9050919050565b6000602082019050818103600083015261248d8161203f565b9050919050565b600060208201905081810360008301526124ad816120a5565b9050919050565b600060208201905081810360008301526124cd8161210b565b9050919050565b600060208201905081810360008301526124ed81612171565b9050919050565b6000602082019050818103600083015261250d816121d7565b9050919050565b6000602082019050612529600083018461223d565b92915050565b6000604051905081810181811067ffffffffffffffff821117156125565761255561287d565b5b8060405250919050565b600067ffffffffffffffff82111561257b5761257a61287d565b5b601f19601f8301169050602081019050919050565b600081519050919050565b600081519050919050565b600082825260208201905092915050565b600082825260208201905092915050565b600081905092915050565b60006125de826126f8565b91506125e9836126f8565b9250827fffffffffffffffffffffffffffffffffffffffffffffffffffffffffffffffff0382111561261e5761261d6127f0565b5b828201905092915050565b6000612634826126f8565b915061263f836126f8565b92508261264f5761264e61281f565b5b828204905092915050565b6000612665826126f8565b9150612670836126f8565b925082821015612683576126826127f0565b5b828203905092915050565b6000612699826126d8565b9050919050565b60008115159050919050565b60007fffffffff0000000000000000000000000000000000000000000000000000000082169050919050565b600073ffffffffffffffffffffffffffffffffffffffff82169050919050565b6000819050919050565b82818337600083830152505050565b60005b8381101561272f578082015181840152602081019050612714565b8381111561273e576000848401525b50505050565b6000600282049050600182168061275c57607f821691505b602082108114156127705761276f61284e565b5b50919050565b6000612781826126f8565b91507fffffffffffffffffffffffffffffffffffffffffffffffffffffffffffffffff8214156127b4576127b36127f0565b5b600182019050919050565b60006127ca826126f8565b91506127d5836126f8565b9250826127e5576127e461281f565b5b828206905092915050565b7f4e487b7100000000000000000000000000000000000000000000000000000000600052601160045260246000fd5b7f4e487b7100000000000000000000000000000000000000000000000000000000600052601260045260246000fd5b7f4e487b7100000000000000000000000000000000000000000000000000000000600052602260045260246000fd5b7f4e487b7100000000000000000000000000000000000000000000000000000000600052604160045260246000fd5b6000601f19601f8301169050919050565b6128c68161268e565b81146128d157600080fd5b50565b6128dd816126a0565b81146128e857600080fd5b50565b6128f4816126ac565b81146128ff57600080fd5b50565b61290b816126f8565b811461291657600080fd5b5056fe68747470733a2f2f6e66742d636f6c6f72732e6865726f6b756170702e636f6d2f6170692fa264697066735822122010bf26b17528a883490e1412dd739e0223672d95ac638d137777d811768bf30d64736f6c63430008000033",
  "immutableReferences": {},
  "source": "// SPDX-License-Identifier: MIT\npragma solidity ^0.8.0;\n\nimport \"../node_modules/@openzeppelin/contracts/token/ERC721/ERC721.sol\";\n\ncontract NFT is ERC721 {\n    uint256 public nextTokenId;\n    address public admin;\n\n    constructor() ERC721(\"Random Colors\", \"RNC\") {\n        admin = msg.sender;\n    }\n\n    function mint(address to) external payable {\n        require(msg.sender == admin, \"only admin\");\n        require(\n            msg.value >= 0.000001 ether,\n            \"value must be EQUAL OR GREATER THAN 0.000000001 Ether\"\n        );\n        _safeMint(to, nextTokenId);\n        nextTokenId++;\n    }\n\n    function _baseURI() internal pure override returns (string memory) {\n        return \"https://nft-colors.herokuapp.com/api/\";\n        // return \"https://sleepy-fortress-10819.herokuapp.com/api/\";\n    }\n}\n",
  "sourcePath": "/Volumes/APPLE HDD/reactprojects/nft2/contracts/NFT.sol",
  "compiler": {
    "name": "solc",
    "version": "0.8.0+commit.c7dfd78e.Emscripten.clang"
  },
  "schemaVersion": "3.4.3",
  "updatedAt": "2021-08-30T07:45:50.957Z",
  "networkType": "ethereum",
  "devdoc": {
    "kind": "dev",
    "methods": {
      "approve(address,uint256)": {
        "details": "See {IERC721-approve}."
      },
      "balanceOf(address)": {
        "details": "See {IERC721-balanceOf}."
      },
      "getApproved(uint256)": {
        "details": "See {IERC721-getApproved}."
      },
      "isApprovedForAll(address,address)": {
        "details": "See {IERC721-isApprovedForAll}."
      },
      "name()": {
        "details": "See {IERC721Metadata-name}."
      },
      "ownerOf(uint256)": {
        "details": "See {IERC721-ownerOf}."
      },
      "safeTransferFrom(address,address,uint256)": {
        "details": "See {IERC721-safeTransferFrom}."
      },
      "safeTransferFrom(address,address,uint256,bytes)": {
        "details": "See {IERC721-safeTransferFrom}."
      },
      "setApprovalForAll(address,bool)": {
        "details": "See {IERC721-setApprovalForAll}."
      },
      "supportsInterface(bytes4)": {
        "details": "See {IERC165-supportsInterface}."
      },
      "symbol()": {
        "details": "See {IERC721Metadata-symbol}."
      },
      "tokenURI(uint256)": {
        "details": "See {IERC721Metadata-tokenURI}."
      },
      "transferFrom(address,address,uint256)": {
        "details": "See {IERC721-transferFrom}."
      }
    },
    "version": 1
  },
  "userdoc": {
    "kind": "user",
    "methods": {},
    "version": 1
  }
}